{
  "transactions": [
    {
      "hash": "0x047ffcbd95c33c04baffa17b60fbc68b9257c6260b7327c98d493aedcc11e02f",
      "transactionType": "CALL",
      "contractName": null,
      "contractAddress": "0x98db1edc0ed10888d559c641f709a364818b0167",
      "function": "registerStealthMetaAddress(bytes32,bytes32)",
      "arguments": [
        "0xa9c34401028e15a2d561b20f96cebece55e741087c980e499fae8837dc96641c",
        "0x195ebeffd43198e026cf36eddab6cf4ae66f6ef4cb80f03b096766f304f39bbb"
      ],
      "transaction": {
        "from": "0xc108f92e717891a8c9f2ab71c67cbf96a3207d7b",
        "to": "0x98db1edc0ed10888d559c641f709a364818b0167",
        "value": "0x0",
        "input": "0x5df0cf09a9c34401028e15a2d561b20f96cebece55e741087c980e499fae8837dc96641c195ebeffd43198e026cf36eddab6cf4ae66f6ef4cb80f03b096766f304f39bbb",
        "nonce": "0x5d",
        "chainId": "0x190f1b41"
      },
      "additionalContracts": [],
      "isFixedGasLimit": false
    },
    {
      "hash": "0x57971b182ea1df1f69fcb0778a8bbcfcbc16e901b179115d7059e243f2724fba",
      "transactionType": "CALL",
      "contractName": null,
      "contractAddress": "0x98db1edc0ed10888d559c641f709a364818b0167",
      "function": "sendNativeToStealth(address,bytes32,uint8,bytes)",
      "arguments": [
        "0xe55DC1Db5036596D2aD141cA9ee0A6673ab96B12",
        "0x869f8c53a6450ee74c778f143170c43190cc1f648351e044a08a470da96e7ced",
        "83",
        "0x"
      ],
      "transaction": {
        "from": "0xc108f92e717891a8c9f2ab71c67cbf96a3207d7b",
        "to": "0x98db1edc0ed10888d559c641f709a364818b0167",
        "value": "0x38d7ea4c68000",
        "input": "0x41cbcb32000000000000000000000000e55dc1db5036596d2ad141ca9ee0a6673ab96b12869f8c53a6450ee74c778f143170c43190cc1f648351e044a08a470da96e7ced000000000000000000000000000000000000000000000000000000000000005300000000000000000000000000000000000000000000000000000000000000800000000000000000000000000000000000000000000000000000000000000000",
        "nonce": "0x5e",
        "chainId": "0x190f1b41"
      },
      "additionalContracts": [],
      "isFixedGasLimit": false
    },
    {
      "hash": "0xe86f630ff9f0077fb753bb7e40019ebd55ce1761c86ce3e059eeadaafdf596ae",
      "transactionType": "CALL",
      "contractName": null,
      "contractAddress": "0xe55dc1db5036596d2ad141ca9ee0a6673ab96b12",
      "function": null,
      "arguments": null,
      "transaction": {
        "from": "0xc108f92e717891a8c9f2ab71c67cbf96a3207d7b",
        "to": "0xe55dc1db5036596d2ad141ca9ee0a6673ab96b12",
        "value": "0x1c6bf52634000",
        "input": "0x",
        "nonce": "0x5f",
        "chainId": "0x190f1b41"
      },
      "additionalContracts": [],
      "isFixedGasLimit": false
    },
    {
      "hash": null,
      "transactionType": "CALL",
      "contractName": null,
      "contractAddress": "0x98db1edc0ed10888d559c641f709a364818b0167",
      "function": "withdrawFromStealth(address,address)",
      "arguments": [
        "0x0000000000000000000000000000000000000000",
        "0xe55DC1Db5036596D2aD141cA9ee0A6673ab96B12"
      ],
      "transaction": {
        "from": "0xe55dc1db5036596d2ad141ca9ee0a6673ab96b12",
        "to": "0x98db1edc0ed10888d559c641f709a364818b0167",
        "value": "0x0",
        "input": "0x7e2967e10000000000000000000000000000000000000000000000000000000000000000000000000000000000000000e55dc1db5036596d2ad141ca9ee0a6673ab96b12",
        "nonce": "0x0",
        "chainId": "0x190f1b41"
      },
      "additionalContracts": [],
      "isFixedGasLimit": false
    }
  ],
  "receipts": [
    {
      "status": "0x1",
      "cumulativeGasUsed": "0x0",
      "logs": [
        {
          "address": "0x98db1edc0ed10888d559c641f709a364818b0167",
          "topics": [
            "0xa72364b38926273f35a4f1f7b461ea4c713d0263e39f4bce795ba946d842fd91",
            "0x000000000000000000000000c108f92e717891a8c9f2ab71c67cbf96a3207d7b"
          ],
          "data": "0xa9c34401028e15a2d561b20f96cebece55e741087c980e499fae8837dc96641c195ebeffd43198e026cf36eddab6cf4ae66f6ef4cb80f03b096766f304f39bbb",
          "blockHash": "0x2c3a52533fe14fc398dc5e107485abedc7cfad7ec3645d0f89598cfc7eec5c49",
          "blockNumber": "0x5d1c26",
          "transactionHash": "0x047ffcbd95c33c04baffa17b60fbc68b9257c6260b7327c98d493aedcc11e02f",
          "transactionIndex": "0x2",
          "logIndex": "0x5",
          "removed": false
        }
      ],
      "logsBloom": "0x00000000000000000000000000000000000000000000000000000000000080000000000000000020000000000000000000000000000000000000000000000004000000000000000000000000000000000000000000000000000000000000000000000000000000000000000000000000000000000120000010000000000000000000000000000000000000810000000000000000000000000000000000000000000000000000000000000000000000000000000000000000000000000000000000000000000000000000000000000000000000000000000000000000000000000000000000000000800000000000000000000000000000000000000000000000",
      "type": "0x2",
      "transactionHash": "0x047ffcbd95c33c04baffa17b60fbc68b9257c6260b7327c98d493aedcc11e02f",
      "transactionIndex": "0x2",
      "blockHash": "0x2c3a52533fe14fc398dc5e107485abedc7cfad7ec3645d0f89598cfc7eec5c49",
      "blockNumber": "0x5d1c26",
      "gasUsed": "0xf887",
      "effectiveGasPrice": "0xe8d4a51000",
      "from": "0xc108f92e717891a8c9f2ab71c67cbf96a3207d7b",
      "to": "0x98db1edc0ed10888d559c641f709a364818b0167",
      "contractAddress": null
    },
    {
      "status": "0x1",
      "cumulativeGasUsed": "0x0",
      "logs": [
        {
          "address": "0x98db1edc0ed10888d559c641f709a364818b0167",
          "topics": [
            "0xef0dc7aac8f81ff6b514ca859386b67b1b85c43621fa0fe1bee5b26dd4066af9",
            "0x0000000000000000000000000000000000000000000000000000000000000000",
            "0x000000000000000000000000e55dc1db5036596d2ad141ca9ee0a6673ab96b12",
            "0x000000000000000000000000c108f92e717891a8c9f2ab71c67cbf96a3207d7b"
          ],
          "data": "0x869f8c53a6450ee74c778f143170c43190cc1f648351e044a08a470da96e7ced00000000000000000000000000000000000000000000000000000000000000400000000000000000000000000000000000000000000000000000000000000000",
          "blockHash": "0xba8f7681fe31557f85bf96f46cfa86984d4f33020264a2ded38d9c27ddc68c1f",
          "blockNumber": "0x5d1c27",
          "transactionHash": "0x57971b182ea1df1f69fcb0778a8bbcfcbc16e901b179115d7059e243f2724fba",
          "transactionIndex": "0x2",
          "logIndex": "0x6",
          "removed": false
        },
        {
          "address": "0x98db1edc0ed10888d559c641f709a364818b0167",
          "topics": [
            "0xcca5d3952757383ada5927e78da3136ddbae1804ad288c4361d692ccbcfb4f56",
            "0x000000000000000000000000e55dc1db5036596d2ad141ca9ee0a6673ab96b12",
            "0x869f8c53a6450ee74c778f143170c43190cc1f648351e044a08a470da96e7ced"
          ],
          "data": "0x000000000000000000000000000000000000000000000000000000000000000000000000000000000000000000000000000000000000000000038d7ea4c680000000000000000000000000000000000000000000000000000000000000000053",
          "blockHash": "0xba8f7681fe31557f85bf96f46cfa86984d4f33020264a2ded38d9c27ddc68c1f",
          "blockNumber": "0x5d1c27",
          "transactionHash": "0x57971b182ea1df1f69fcb0778a8bbcfcbc16e901b179115d7059e243f2724fba",
          "transactionIndex": "0x2",
          "logIndex": "0x7",
          "removed": false
        }
      ],
      "logsBloom": "0x00000000000000000000000000000000000000000000800008000000000000000000000000000020000000000000000000000000000000000000000200000004000000000000000000000000000000000000000000000000000000000000000000000000020400000000000000000800000000000100000000000000000000000000000000000000000000810000000200000000000000000000000000000000000000000800000100000000000000000004000000000000000000000000000000000000001002000000000000000000000000000000000000000000000020000000000000000000800000000000000000000010008000000000000000000000",
      "type": "0x2",
      "transactionHash": "0x57971b182ea1df1f69fcb0778a8bbcfcbc16e901b179115d7059e243f2724fba",
      "transactionIndex": "0x2",
      "blockHash": "0xba8f7681fe31557f85bf96f46cfa86984d4f33020264a2ded38d9c27ddc68c1f",
      "blockNumber": "0x5d1c27",
      "gasUsed": "0xfbfd",
      "effectiveGasPrice": "0xe8d4a51000",
      "from": "0xc108f92e717891a8c9f2ab71c67cbf96a3207d7b",
      "to": "0x98db1edc0ed10888d559c641f709a364818b0167",
      "contractAddress": null
    },
    {
      "status": "0x1",
      "cumulativeGasUsed": "0x0",
      "logs": [],
      "logsBloom": "0x00000000000000000000000000000000000000000000000000000000000000000000000000000000000000000000000000000000000000000000000000000000000000000000000000000000000000000000000000000000000000000000000000000000000000000000000000000000000000000000000000000000000000000000000000000000000000000000000000000000000000000000000000000000000000000000000000000000000000000000000000000000000000000000000000000000000000000000000000000000000000000000000000000000000000000000000000000000000000000000000000000000000000000000000000000000",
      "type": "0x2",
      "transactionHash": "0xe86f630ff9f0077fb753bb7e40019ebd55ce1761c86ce3e059eeadaafdf596ae",
      "transactionIndex": "0x2",
      "blockHash": "0xbcd935bc822f0ae2f46bdac447618b0645ae5e25c6d15544a87b3af79932b095",
      "blockNumber": "0x5d1c29",
      "gasUsed": "0x2a5b",
      "effectiveGasPrice": "0xe8d4a51000",
      "from": "0xc108f92e717891a8c9f2ab71c67cbf96a3207d7b",
      "to": "0xe55dc1db5036596d2ad141ca9ee0a6673ab96b12",
      "contractAddress": null
    }
  ],
  "libraries": [],
  "pending": [],
  "returns": {},
  "timestamp": 1772872307045,
  "chain": 420420417,
  "commit": "818aed5"
}