{
  "transactions": [
    {
      "hash": "0xad18c76685e58fcc906c240d76305ade4d78ad53ccc013b70382c18be7a34164",
      "transactionType": "CALL",
      "contractName": null,
      "contractAddress": "0x98db1edc0ed10888d559c641f709a364818b0167",
      "function": "sendNativeToStealth(address,bytes32,uint8,bytes)",
      "arguments": [
        "0xe55DC1Db5036596D2aD141cA9ee0A6673ab96B12",
        "0xa8dd67a53691af13b62893b36a68d9310122851814c9e543dbfe5c87bdda643d",
        "100",
        "0x"
      ],
      "transaction": {
        "from": "0xc108f92e717891a8c9f2ab71c67cbf96a3207d7b",
        "to": "0x98db1edc0ed10888d559c641f709a364818b0167",
        "value": "0x38d7ea4c68000",
        "input": "0x41cbcb32000000000000000000000000e55dc1db5036596d2ad141ca9ee0a6673ab96b12a8dd67a53691af13b62893b36a68d9310122851814c9e543dbfe5c87bdda643d000000000000000000000000000000000000000000000000000000000000006400000000000000000000000000000000000000000000000000000000000000800000000000000000000000000000000000000000000000000000000000000000",
        "nonce": "0x60",
        "chainId": "0x190f1b41"
      },
      "additionalContracts": [],
      "isFixedGasLimit": false
    },
    {
      "hash": "0x2c42fa9e48511cbd11cdccce2a3b02005ff8fd3d093bff54b7ab46bb7db04bf1",
      "transactionType": "CALL",
      "contractName": null,
      "contractAddress": "0xe55dc1db5036596d2ad141ca9ee0a6673ab96b12",
      "function": null,
      "arguments": null,
      "transaction": {
        "from": "0xc108f92e717891a8c9f2ab71c67cbf96a3207d7b",
        "to": "0xe55dc1db5036596d2ad141ca9ee0a6673ab96b12",
        "value": "0x1c6bf52634000",
        "input": "0x",
        "nonce": "0x61",
        "chainId": "0x190f1b41"
      },
      "additionalContracts": [],
      "isFixedGasLimit": false
    },
    {
      "hash": null,
      "transactionType": "CALL",
      "contractName": null,
      "contractAddress": "0x98db1edc0ed10888d559c641f709a364818b0167",
      "function": "withdrawFromStealth(address,address)",
      "arguments": [
        "0x0000000000000000000000000000000000000000",
        "0xe55DC1Db5036596D2aD141cA9ee0A6673ab96B12"
      ],
      "transaction": {
        "from": "0xe55dc1db5036596d2ad141ca9ee0a6673ab96b12",
        "to": "0x98db1edc0ed10888d559c641f709a364818b0167",
        "value": "0x0",
        "input": "0x7e2967e10000000000000000000000000000000000000000000000000000000000000000000000000000000000000000e55dc1db5036596d2ad141ca9ee0a6673ab96b12",
        "nonce": "0x0",
        "chainId": "0x190f1b41"
      },
      "additionalContracts": [],
      "isFixedGasLimit": false
    }
  ],
  "receipts": [
    {
      "status": "0x1",
      "cumulativeGasUsed": "0x0",
      "logs": [
        {
          "address": "0x98db1edc0ed10888d559c641f709a364818b0167",
          "topics": [
            "0xef0dc7aac8f81ff6b514ca859386b67b1b85c43621fa0fe1bee5b26dd4066af9",
            "0x0000000000000000000000000000000000000000000000000000000000000000",
            "0x000000000000000000000000e55dc1db5036596d2ad141ca9ee0a6673ab96b12",
            "0x000000000000000000000000c108f92e717891a8c9f2ab71c67cbf96a3207d7b"
          ],
          "data": "0xa8dd67a53691af13b62893b36a68d9310122851814c9e543dbfe5c87bdda643d00000000000000000000000000000000000000000000000000000000000000400000000000000000000000000000000000000000000000000000000000000000",
          "blockHash": "0x57b1b9f0703587788a0d55259900f3bec763842743a7263f35c96aece94d2428",
          "blockNumber": "0x5d1c4b",
          "transactionHash": "0xad18c76685e58fcc906c240d76305ade4d78ad53ccc013b70382c18be7a34164",
          "transactionIndex": "0x2",
          "logIndex": "0x6",
          "removed": false
        },
        {
          "address": "0x98db1edc0ed10888d559c641f709a364818b0167",
          "topics": [
            "0xcca5d3952757383ada5927e78da3136ddbae1804ad288c4361d692ccbcfb4f56",
            "0x000000000000000000000000e55dc1db5036596d2ad141ca9ee0a6673ab96b12",
            "0xa8dd67a53691af13b62893b36a68d9310122851814c9e543dbfe5c87bdda643d"
          ],
          "data": "0x000000000000000000000000000000000000000000000000000000000000000000000000000000000000000000000000000000000000000000038d7ea4c680000000000000000000000000000000000000000000000000000000000000000064",
          "blockHash": "0x57b1b9f0703587788a0d55259900f3bec763842743a7263f35c96aece94d2428",
          "blockNumber": "0x5d1c4b",
          "transactionHash": "0xad18c76685e58fcc906c240d76305ade4d78ad53ccc013b70382c18be7a34164",
          "transactionIndex": "0x2",
          "logIndex": "0x7",
          "removed": false
        }
      ],
      "logsBloom": "0x00000000000000000000000000000000000000000000800008000000000000000000000000000020000000000000000000000000000000000000000000000004000000000000000000000000000000000000000000000000000000000000000000000000020400000000000000000800000000000100000000000000000000000000040000000000000000810000000200000000000000000000000000000000000000000800000000000000000000000004000000000000000000000000000000000000001000000000000000000000000000000000000000000000000020000000000004000000800000000000000000000010008010000000000000000000",
      "type": "0x0",
      "transactionHash": "0xad18c76685e58fcc906c240d76305ade4d78ad53ccc013b70382c18be7a34164",
      "transactionIndex": "0x2",
      "blockHash": "0x57b1b9f0703587788a0d55259900f3bec763842743a7263f35c96aece94d2428",
      "blockNumber": "0x5d1c4b",
      "gasUsed": "0xa05",
      "effectiveGasPrice": "0xe8d4a51000",
      "from": "0xc108f92e717891a8c9f2ab71c67cbf96a3207d7b",
      "to": "0x98db1edc0ed10888d559c641f709a364818b0167",
      "contractAddress": null
    },
    {
      "status": "0x1",
      "cumulativeGasUsed": "0x0",
      "logs": [],
      "logsBloom": "0x00000000000000000000000000000000000000000000000000000000000000000000000000000000000000000000000000000000000000000000000000000000000000000000000000000000000000000000000000000000000000000000000000000000000000000000000000000000000000000000000000000000000000000000000000000000000000000000000000000000000000000000000000000000000000000000000000000000000000000000000000000000000000000000000000000000000000000000000000000000000000000000000000000000000000000000000000000000000000000000000000000000000000000000000000000000",
      "type": "0x0",
      "transactionHash": "0x2c42fa9e48511cbd11cdccce2a3b02005ff8fd3d093bff54b7ab46bb7db04bf1",
      "transactionIndex": "0x2",
      "blockHash": "0xb15c073dbc75dcb9d5da90e79bfcf0c3a6fc50e319bf68964bf5992e8b462f06",
      "blockNumber": "0x5d1c4c",
      "gasUsed": "0x337",
      "effectiveGasPrice": "0xe8d4a51000",
      "from": "0xc108f92e717891a8c9f2ab71c67cbf96a3207d7b",
      "to": "0xe55dc1db5036596d2ad141ca9ee0a6673ab96b12",
      "contractAddress": null
    }
  ],
  "libraries": [],
  "pending": [],
  "returns": {},
  "timestamp": 1772872376405,
  "chain": 420420417,
  "commit": "818aed5"
}