{
  "transactions": [
    {
      "hash": "0x2cc7eecdb1fb5dd39a0bf5bcf5123f8378d6b7c86c09ac8693389f79829e61d1",
      "transactionType": "CALL",
      "contractName": null,
      "contractAddress": "0x98db1edc0ed10888d559c641f709a364818b0167",
      "function": "sendNativeToStealth(address,bytes32,uint8,bytes)",
      "arguments": [
        "0xe55DC1Db5036596D2aD141cA9ee0A6673ab96B12",
        "0x1dd95580147cf74a694b62dcf86e4bab260b62a980e9698693ea6f1ea336dcbf",
        "201",
        "0x"
      ],
      "transaction": {
        "from": "0xc108f92e717891a8c9f2ab71c67cbf96a3207d7b",
        "to": "0x98db1edc0ed10888d559c641f709a364818b0167",
        "value": "0x38d7ea4c68000",
        "input": "0x41cbcb32000000000000000000000000e55dc1db5036596d2ad141ca9ee0a6673ab96b121dd95580147cf74a694b62dcf86e4bab260b62a980e9698693ea6f1ea336dcbf00000000000000000000000000000000000000000000000000000000000000c900000000000000000000000000000000000000000000000000000000000000800000000000000000000000000000000000000000000000000000000000000000",
        "nonce": "0x62",
        "chainId": "0x190f1b41"
      },
      "additionalContracts": [],
      "isFixedGasLimit": false
    },
    {
      "hash": "0xa6c8caac211167eae42e5594888f36885bc015eb73fd91417e1d30e5d295f902",
      "transactionType": "CALL",
      "contractName": null,
      "contractAddress": "0xe55dc1db5036596d2ad141ca9ee0a6673ab96b12",
      "function": null,
      "arguments": null,
      "transaction": {
        "from": "0xc108f92e717891a8c9f2ab71c67cbf96a3207d7b",
        "to": "0xe55dc1db5036596d2ad141ca9ee0a6673ab96b12",
        "value": "0x1c6bf52634000",
        "input": "0x",
        "nonce": "0x63",
        "chainId": "0x190f1b41"
      },
      "additionalContracts": [],
      "isFixedGasLimit": false
    },
    {
      "hash": null,
      "transactionType": "CALL",
      "contractName": null,
      "contractAddress": "0x98db1edc0ed10888d559c641f709a364818b0167",
      "function": "withdrawFromStealth(address,address)",
      "arguments": [
        "0x0000000000000000000000000000000000000000",
        "0xe55DC1Db5036596D2aD141cA9ee0A6673ab96B12"
      ],
      "transaction": {
        "from": "0xe55dc1db5036596d2ad141ca9ee0a6673ab96b12",
        "to": "0x98db1edc0ed10888d559c641f709a364818b0167",
        "value": "0x0",
        "input": "0x7e2967e10000000000000000000000000000000000000000000000000000000000000000000000000000000000000000e55dc1db5036596d2ad141ca9ee0a6673ab96b12",
        "nonce": "0x0",
        "chainId": "0x190f1b41"
      },
      "additionalContracts": [],
      "isFixedGasLimit": false
    }
  ],
  "receipts": [
    {
      "status": "0x1",
      "cumulativeGasUsed": "0x0",
      "logs": [
        {
          "address": "0x98db1edc0ed10888d559c641f709a364818b0167",
          "topics": [
            "0xef0dc7aac8f81ff6b514ca859386b67b1b85c43621fa0fe1bee5b26dd4066af9",
            "0x0000000000000000000000000000000000000000000000000000000000000000",
            "0x000000000000000000000000e55dc1db5036596d2ad141ca9ee0a6673ab96b12",
            "0x000000000000000000000000c108f92e717891a8c9f2ab71c67cbf96a3207d7b"
          ],
          "data": "0x1dd95580147cf74a694b62dcf86e4bab260b62a980e9698693ea6f1ea336dcbf00000000000000000000000000000000000000000000000000000000000000400000000000000000000000000000000000000000000000000000000000000000",
          "blockHash": "0x8a0a9b38e8cf2485eb9fa322cab24632af191c3624cafeadf5f22352f1d8e715",
          "blockNumber": "0x5d1c7d",
          "transactionHash": "0x2cc7eecdb1fb5dd39a0bf5bcf5123f8378d6b7c86c09ac8693389f79829e61d1",
          "transactionIndex": "0x2",
          "logIndex": "0x6",
          "removed": false
        },
        {
          "address": "0x98db1edc0ed10888d559c641f709a364818b0167",
          "topics": [
            "0xcca5d3952757383ada5927e78da3136ddbae1804ad288c4361d692ccbcfb4f56",
            "0x000000000000000000000000e55dc1db5036596d2ad141ca9ee0a6673ab96b12",
            "0x1dd95580147cf74a694b62dcf86e4bab260b62a980e9698693ea6f1ea336dcbf"
          ],
          "data": "0x000000000000000000000000000000000000000000000000000000000000000000000000000000000000000000000000000000000000000000038d7ea4c6800000000000000000000000000000000000000000000000000000000000000000c9",
          "blockHash": "0x8a0a9b38e8cf2485eb9fa322cab24632af191c3624cafeadf5f22352f1d8e715",
          "blockNumber": "0x5d1c7d",
          "transactionHash": "0x2cc7eecdb1fb5dd39a0bf5bcf5123f8378d6b7c86c09ac8693389f79829e61d1",
          "transactionIndex": "0x2",
          "logIndex": "0x7",
          "removed": false
        }
      ],
      "logsBloom": "0x00000000000000000000000000000000000000000000800008000000000000000000000000000020000000000000000000000000000000000000000000000004000000000000000000000000000000000000000000000000000000000000000000000000020500010000000000000800000000000100000000000000000000000000000000000000000000810000000200000000000000000000000000000000000000000800000000000000000000000004001000000000000000000000000000000000001000000000000000000000000000000000000000000000000020000000000000000000800000000000000000000010008000000000000000000000",
      "type": "0x0",
      "transactionHash": "0x2cc7eecdb1fb5dd39a0bf5bcf5123f8378d6b7c86c09ac8693389f79829e61d1",
      "transactionIndex": "0x2",
      "blockHash": "0x8a0a9b38e8cf2485eb9fa322cab24632af191c3624cafeadf5f22352f1d8e715",
      "blockNumber": "0x5d1c7d",
      "gasUsed": "0xa05",
      "effectiveGasPrice": "0xe8d4a51000",
      "from": "0xc108f92e717891a8c9f2ab71c67cbf96a3207d7b",
      "to": "0x98db1edc0ed10888d559c641f709a364818b0167",
      "contractAddress": null
    },
    {
      "status": "0x1",
      "cumulativeGasUsed": "0x0",
      "logs": [],
      "logsBloom": "0x00000000000000000000000000000000000000000000000000000000000000000000000000000000000000000000000000000000000000000000000000000000000000000000000000000000000000000000000000000000000000000000000000000000000000000000000000000000000000000000000000000000000000000000000000000000000000000000000000000000000000000000000000000000000000000000000000000000000000000000000000000000000000000000000000000000000000000000000000000000000000000000000000000000000000000000000000000000000000000000000000000000000000000000000000000000",
      "type": "0x0",
      "transactionHash": "0xa6c8caac211167eae42e5594888f36885bc015eb73fd91417e1d30e5d295f902",
      "transactionIndex": "0x2",
      "blockHash": "0x4986ee399e1f95c4071b5ee655de292f7ff20f6329b6a17dce68c6c5cf309aff",
      "blockNumber": "0x5d1c7f",
      "gasUsed": "0x337",
      "effectiveGasPrice": "0xe8d4a51000",
      "from": "0xc108f92e717891a8c9f2ab71c67cbf96a3207d7b",
      "to": "0xe55dc1db5036596d2ad141ca9ee0a6673ab96b12",
      "contractAddress": null
    }
  ],
  "libraries": [],
  "pending": [],
  "returns": {},
  "timestamp": 1772872496694,
  "chain": 420420417,
  "commit": "818aed5"
}